{
  "contractName": "SimpleWallet",
  "abi": [
    {
      "constant": false,
      "inputs": [
        {
          "name": "_address",
          "type": "address"
        }
      ],
      "name": "allowAdressToSendFunds",
      "outputs": [],
      "payable": false,
      "stateMutability": "nonpayable",
      "type": "function"
    },
    {
      "constant": true,
      "inputs": [],
      "name": "getOwner",
      "outputs": [
        {
          "name": "",
          "type": "address"
        }
      ],
      "payable": false,
      "stateMutability": "view",
      "type": "function"
    },
    {
      "constant": true,
      "inputs": [
        {
          "name": "_address",
          "type": "address"
        }
      ],
      "name": "isAddressAllowedToSend",
      "outputs": [
        {
          "name": "",
          "type": "bool"
        }
      ],
      "payable": false,
      "stateMutability": "view",
      "type": "function"
    },
    {
      "constant": false,
      "inputs": [
        {
          "name": "_amount",
          "type": "uint256"
        },
        {
          "name": "_receiver",
          "type": "address"
        }
      ],
      "name": "sendFunds",
      "outputs": [
        {
          "name": "",
          "type": "uint256"
        }
      ],
      "payable": false,
      "stateMutability": "nonpayable",
      "type": "function"
    },
    {
      "constant": false,
      "inputs": [],
      "name": "killWaller",
      "outputs": [],
      "payable": false,
      "stateMutability": "nonpayable",
      "type": "function"
    },
    {
      "constant": false,
      "inputs": [
        {
          "name": "_address",
          "type": "address"
        }
      ],
      "name": "disallowAdressToSendFunds",
      "outputs": [],
      "payable": false,
      "stateMutability": "nonpayable",
      "type": "function"
    },
    {
      "constant": false,
      "inputs": [],
      "name": "donate",
      "outputs": [],
      "payable": true,
      "stateMutability": "payable",
      "type": "function"
    },
    {
      "inputs": [],
      "payable": false,
      "stateMutability": "nonpayable",
      "type": "constructor"
    },
    {
      "anonymous": false,
      "inputs": [
        {
          "indexed": false,
          "name": "_sender",
          "type": "address"
        },
        {
          "indexed": false,
          "name": "_amount",
          "type": "uint256"
        }
      ],
      "name": "Deposit",
      "type": "event"
    },
    {
      "anonymous": false,
      "inputs": [
        {
          "indexed": false,
          "name": "_sender",
          "type": "address"
        },
        {
          "indexed": false,
          "name": "_amount",
          "type": "uint256"
        },
        {
          "indexed": false,
          "name": "_beneficiary",
          "type": "address"
        }
      ],
      "name": "Withdraw",
      "type": "event"
    }
  ],
  "bytecode": "0x6060604052341561000f57600080fd5b336000806101000a81548173ffffffffffffffffffffffffffffffffffffffff021916908373ffffffffffffffffffffffffffffffffffffffff16021790555061091d8061005e6000396000f300606060405260043610610083576000357c0100000000000000000000000000000000000000000000000000000000900463ffffffff1680635ce07b0c14610088578063893d20e8146100c157806391d85a5f14610116578063b268677414610167578063ddd1d452146101bd578063de0e3e80146101d2578063ed88c68e1461020b575b600080fd5b341561009357600080fd5b6100bf600480803573ffffffffffffffffffffffffffffffffffffffff16906020019091905050610215565b005b34156100cc57600080fd5b6100d46102cd565b604051808273ffffffffffffffffffffffffffffffffffffffff1673ffffffffffffffffffffffffffffffffffffffff16815260200191505060405180910390f35b341561012157600080fd5b61014d600480803573ffffffffffffffffffffffffffffffffffffffff169060200190919050506102f6565b604051808215151515815260200191505060405180910390f35b341561017257600080fd5b6101a7600480803590602001909190803573ffffffffffffffffffffffffffffffffffffffff169060200190919050506103a6565b6040518082815260200191505060405180910390f35b34156101c857600080fd5b6101d0610736565b005b34156101dd57600080fd5b610209600480803573ffffffffffffffffffffffffffffffffffffffff169060200190919050506107cb565b005b610213610884565b005b6000809054906101000a900473ffffffffffffffffffffffffffffffffffffffff1673ffffffffffffffffffffffffffffffffffffffff163373ffffffffffffffffffffffffffffffffffffffff1614151561027057600080fd5b60018060008373ffffffffffffffffffffffffffffffffffffffff1673ffffffffffffffffffffffffffffffffffffffff16815260200190815260200160002060000160006101000a81548160ff02191690831515021790555050565b60008060009054906101000a900473ffffffffffffffffffffffffffffffffffffffff16905090565b6000600160008373ffffffffffffffffffffffffffffffffffffffff1673ffffffffffffffffffffffffffffffffffffffff16815260200190815260200160002060000160009054906101000a900460ff168061039f57506000809054906101000a900473ffffffffffffffffffffffffffffffffffffffff1673ffffffffffffffffffffffffffffffffffffffff168273ffffffffffffffffffffffffffffffffffffffff16145b9050919050565b6000806000809054906101000a900473ffffffffffffffffffffffffffffffffffffffff1673ffffffffffffffffffffffffffffffffffffffff163373ffffffffffffffffffffffffffffffffffffffff16141580156104535750600160003373ffffffffffffffffffffffffffffffffffffffff1673ffffffffffffffffffffffffffffffffffffffff16815260200190815260200160002060000160009054906101000a900460ff16155b1561045d57600080fd5b833073ffffffffffffffffffffffffffffffffffffffff163110151561072a578273ffffffffffffffffffffffffffffffffffffffff166108fc859081150290604051600060405180830381858888f1935050505090508015156104c057600080fd5b600160003373ffffffffffffffffffffffffffffffffffffffff1673ffffffffffffffffffffffffffffffffffffffff1681526020019081526020016000206001016000815480929190600101919050555082600160003373ffffffffffffffffffffffffffffffffffffffff1673ffffffffffffffffffffffffffffffffffffffff1681526020019081526020016000206002016000600160003373ffffffffffffffffffffffffffffffffffffffff1673ffffffffffffffffffffffffffffffffffffffff16815260200190815260200160002060010154815260200190815260200160002060000160006101000a81548173ffffffffffffffffffffffffffffffffffffffff021916908373ffffffffffffffffffffffffffffffffffffffff16021790555083600160003373ffffffffffffffffffffffffffffffffffffffff1673ffffffffffffffffffffffffffffffffffffffff1681526020019081526020016000206002016000600160003373ffffffffffffffffffffffffffffffffffffffff1673ffffffffffffffffffffffffffffffffffffffff168152602001908152602001600020600101548152602001908152602001600020600101819055507f56c54ba9bd38d8fd62012e42c7ee564519b09763c426d331b3661b537ead19b2338585604051808473ffffffffffffffffffffffffffffffffffffffff1673ffffffffffffffffffffffffffffffffffffffff1681526020018381526020018273ffffffffffffffffffffffffffffffffffffffff1673ffffffffffffffffffffffffffffffffffffffff168152602001935050505060405180910390a161072f565b600080fd5b5092915050565b6000809054906101000a900473ffffffffffffffffffffffffffffffffffffffff1673ffffffffffffffffffffffffffffffffffffffff163373ffffffffffffffffffffffffffffffffffffffff1614151561079157600080fd5b6000809054906101000a900473ffffffffffffffffffffffffffffffffffffffff1673ffffffffffffffffffffffffffffffffffffffff16ff5b6000809054906101000a900473ffffffffffffffffffffffffffffffffffffffff1673ffffffffffffffffffffffffffffffffffffffff163373ffffffffffffffffffffffffffffffffffffffff1614151561082657600080fd5b6000600160008373ffffffffffffffffffffffffffffffffffffffff1673ffffffffffffffffffffffffffffffffffffffff16815260200190815260200160002060000160006101000a81548160ff02191690831515021790555050565b7fe1fffcc4923d04b559f4d29a8bfc6cda04eb5b0d3c460751c2402c5c5cc9109c3334604051808373ffffffffffffffffffffffffffffffffffffffff1673ffffffffffffffffffffffffffffffffffffffff1681526020018281526020019250505060405180910390a15600a165627a7a72305820c16b18ea164d1a26bf1c44d8b4b82dd5f5debbdc9ab01b26f4fec54965071f1a0029",
  "source": "pragma solidity ^0.4.16;\n\n\ncontract SimpleWallet {\n\n    struct WithdrawStruct {\n        address to;\n        uint amount;\n    }\n\n    struct Senders {\n        bool isAllowed;\n        uint sendsCount;\n        mapping(uint => WithdrawStruct) withdraws;\n    }\n\n    address owner;\n    mapping(address => Senders) isAllowedToSendFunds;\n\n    event Deposit(address _sender, uint _amount);\n    event Withdraw(address _sender, uint _amount, address _beneficiary);\n\n    function SimpleWallet() {\n        owner = msg.sender;\n    }\n\n    modifier isAllowedToSend {\n        if (msg.sender != owner && !isAllowedToSendFunds[msg.sender].isAllowed) {\n            revert();\n        } else {\n            _;\n        }\n    }\n\n    modifier ownerOnly {\n        if (msg.sender != owner) {\n            revert();\n        } else {\n            _;\n        }\n    }\n\n    function donate() payable {\n        Deposit(msg.sender, msg.value);\n    }\n\n    function sendFunds(uint _amount, address _receiver) isAllowedToSend public returns (uint) {\n        if (this.balance >= _amount) {\n            bool sendSuccess = _receiver.send(_amount);\n            if (!sendSuccess) {\n                revert();\n            }\n\n            isAllowedToSendFunds[msg.sender].sendsCount++;\n            isAllowedToSendFunds[msg.sender].withdraws[isAllowedToSendFunds[msg.sender].sendsCount].to = _receiver;\n            isAllowedToSendFunds[msg.sender].withdraws[isAllowedToSendFunds[msg.sender].sendsCount].amount = _amount;            \n            Withdraw(msg.sender, _amount, _receiver);\n        } else {\n            revert();\n        }\n    }\n\n    function allowAdressToSendFunds(address _address) ownerOnly public {\n        isAllowedToSendFunds[_address].isAllowed = true;\n    }\n\n    function disallowAdressToSendFunds(address _address) ownerOnly public {\n        isAllowedToSendFunds[_address].isAllowed = false;\n    }\n\n    function isAddressAllowedToSend(address _address) public constant returns (bool) {\n        return isAllowedToSendFunds[_address].isAllowed || _address == owner;\n    }\n\n    function killWaller() ownerOnly public {\n        selfdestruct(owner);\n    }\n\n    function getOwner() constant returns (address) {\n        return owner;\n    }\n}\n",
  "sourcePath": "/home/bborisov/BlockchainFundamentals/ethereum-developer-course-resources/angular-project/contracts/SimpleWallet.sol",
  "compiler": {
    "name": "solc",
    "version": "0.4.18+commit.9cf6e910.Emscripten.clang"
  },
  "schemaVersion": "1.0.1",
  "updatedAt": "2018-01-12T20:32:26.331Z"
}