{
  "contractName": "SimpleWallet",
  "abi": [
    {
      "constant": false,
      "inputs": [
        {
          "name": "_address",
          "type": "address"
        }
      ],
      "name": "allowAdressToSendMoney",
      "outputs": [],
      "payable": false,
      "stateMutability": "nonpayable",
      "type": "function"
    },
    {
      "constant": false,
      "inputs": [
        {
          "name": "_address",
          "type": "address"
        }
      ],
      "name": "disallowAdressToSendMoney",
      "outputs": [],
      "payable": false,
      "stateMutability": "nonpayable",
      "type": "function"
    },
    {
      "constant": false,
      "inputs": [
        {
          "name": "_amount",
          "type": "uint256"
        },
        {
          "name": "_receiver",
          "type": "address"
        }
      ],
      "name": "sendFunds",
      "outputs": [
        {
          "name": "",
          "type": "uint256"
        }
      ],
      "payable": false,
      "stateMutability": "nonpayable",
      "type": "function"
    },
    {
      "constant": true,
      "inputs": [],
      "name": "isAddressAllowedToSend",
      "outputs": [
        {
          "name": "",
          "type": "bool"
        }
      ],
      "payable": false,
      "stateMutability": "view",
      "type": "function"
    },
    {
      "constant": false,
      "inputs": [],
      "name": "killWaller",
      "outputs": [],
      "payable": false,
      "stateMutability": "nonpayable",
      "type": "function"
    },
    {
      "inputs": [],
      "payable": false,
      "stateMutability": "nonpayable",
      "type": "constructor"
    },
    {
      "anonymous": false,
      "inputs": [
        {
          "indexed": false,
          "name": "_sender",
          "type": "address"
        },
        {
          "indexed": false,
          "name": "_amount",
          "type": "uint256"
        }
      ],
      "name": "Deposit",
      "type": "event"
    },
    {
      "anonymous": false,
      "inputs": [
        {
          "indexed": false,
          "name": "_sender",
          "type": "address"
        },
        {
          "indexed": false,
          "name": "_amount",
          "type": "uint256"
        },
        {
          "indexed": false,
          "name": "_beneficiary",
          "type": "address"
        }
      ],
      "name": "Withdraw",
      "type": "event"
    }
  ],
  "bytecode": "0x6060604052341561000f57600080fd5b336000806101000a81548173ffffffffffffffffffffffffffffffffffffffff021916908373ffffffffffffffffffffffffffffffffffffffff16021790555061061a8061005e6000396000f30060606040526004361061006d576000357c0100000000000000000000000000000000000000000000000000000000900463ffffffff1680632494f8eb146100725780634cc3b842146100ab578063b2686774146100e4578063d475f1bd1461013a578063ddd1d45214610167575b600080fd5b341561007d57600080fd5b6100a9600480803573ffffffffffffffffffffffffffffffffffffffff1690602001909190505061017c565b005b34156100b657600080fd5b6100e2600480803573ffffffffffffffffffffffffffffffffffffffff16906020019091905050610231565b005b34156100ef57600080fd5b610124600480803590602001909190803573ffffffffffffffffffffffffffffffffffffffff169060200190919050506102e7565b6040518082815260200191505060405180910390f35b341561014557600080fd5b61014d6104ae565b604051808215151515815260200191505060405180910390f35b341561017257600080fd5b61017a610559565b005b6000809054906101000a900473ffffffffffffffffffffffffffffffffffffffff1673ffffffffffffffffffffffffffffffffffffffff163373ffffffffffffffffffffffffffffffffffffffff161415156101d757600080fd5b60018060008373ffffffffffffffffffffffffffffffffffffffff1673ffffffffffffffffffffffffffffffffffffffff16815260200190815260200160002060006101000a81548160ff02191690831515021790555050565b6000809054906101000a900473ffffffffffffffffffffffffffffffffffffffff1673ffffffffffffffffffffffffffffffffffffffff163373ffffffffffffffffffffffffffffffffffffffff1614151561028c57600080fd5b6000600160008373ffffffffffffffffffffffffffffffffffffffff1673ffffffffffffffffffffffffffffffffffffffff16815260200190815260200160002060006101000a81548160ff02191690831515021790555050565b6000806000809054906101000a900473ffffffffffffffffffffffffffffffffffffffff1673ffffffffffffffffffffffffffffffffffffffff163373ffffffffffffffffffffffffffffffffffffffff16141580156103915750600160003373ffffffffffffffffffffffffffffffffffffffff1673ffffffffffffffffffffffffffffffffffffffff16815260200190815260200160002060009054906101000a900460ff16155b1561039b57600080fd5b833073ffffffffffffffffffffffffffffffffffffffff16311015156104a2578273ffffffffffffffffffffffffffffffffffffffff166108fc859081150290604051600060405180830381858888f1935050505090508015156103fe57600080fd5b7f56c54ba9bd38d8fd62012e42c7ee564519b09763c426d331b3661b537ead19b2338585604051808473ffffffffffffffffffffffffffffffffffffffff1673ffffffffffffffffffffffffffffffffffffffff1681526020018381526020018273ffffffffffffffffffffffffffffffffffffffff1673ffffffffffffffffffffffffffffffffffffffff168152602001935050505060405180910390a16104a7565b600080fd5b5092915050565b6000600160003373ffffffffffffffffffffffffffffffffffffffff1673ffffffffffffffffffffffffffffffffffffffff16815260200190815260200160002060009054906101000a900460ff168061055457506000809054906101000a900473ffffffffffffffffffffffffffffffffffffffff1673ffffffffffffffffffffffffffffffffffffffff163373ffffffffffffffffffffffffffffffffffffffff16145b905090565b6000809054906101000a900473ffffffffffffffffffffffffffffffffffffffff1673ffffffffffffffffffffffffffffffffffffffff163373ffffffffffffffffffffffffffffffffffffffff161415156105b457600080fd5b6000809054906101000a900473ffffffffffffffffffffffffffffffffffffffff1673ffffffffffffffffffffffffffffffffffffffff16ff00a165627a7a723058203be7d57df96edd9fad8e28b2b57fe7e1b9bb9890ca06a63eab0b751e500421810029",
  "source": "pragma solidity ^0.4.16;\n\n\ncontract SimpleWallet {\n    address owner;\n    mapping(address => bool) isAllowedToSendFunds;\n\n    event Deposit(address _sender, uint _amount);\n    event Withdraw(address _sender, uint _amount, address _beneficiary);\n\n    function SimpleWallet() {\n        owner = msg.sender;\n    }\n\n    modifier isAllowedToSend {\n        if (msg.sender != owner && !isAllowedToSendFunds[msg.sender]) {\n            revert();\n        } else {\n            _;\n        }\n    }\n\n    modifier ownerOnly {\n        if (msg.sender != owner) {\n            revert();\n        } else {\n            _;\n        }\n    }\n\n    function sendFunds(uint _amount, address _receiver) isAllowedToSend public returns (uint) {\n        if (this.balance >= _amount) {\n            bool sendSuccess = _receiver.send(_amount);\n            if (!sendSuccess) {\n                revert();\n            }\n\n            Withdraw(msg.sender, _amount, _receiver);\n        } else {\n            revert();\n        }\n    }\n\n    function allowAdressToSendMoney(address _address) ownerOnly public {\n        isAllowedToSendFunds[_address] = true;\n    }\n\n    function disallowAdressToSendMoney(address _address) ownerOnly public {\n        isAllowedToSendFunds[_address] = false;\n    }\n\n    function isAddressAllowedToSend() public constant returns (bool) {\n        return isAllowedToSendFunds[msg.sender] || msg.sender == owner;\n    }\n\n    function killWaller() ownerOnly public {\n        selfdestruct(owner);\n    }\n}\n",
  "sourcePath": "/home/bborisov/BlockchainFundamentals/ethereum-developer-course-resources/angular-project/contracts/SimpleWallet.sol",
  "compiler": {
    "name": "solc",
    "version": "0.4.18+commit.9cf6e910.Emscripten.clang"
  },
  "schemaVersion": "1.0.1",
  "updatedAt": "2018-01-10T21:09:48.559Z"
}