{
  "contractName": "SimpleWallet",
  "abi": [
    {
      "constant": false,
      "inputs": [
        {
          "name": "_address",
          "type": "address"
        }
      ],
      "name": "allowAdressToSendFunds",
      "outputs": [],
      "payable": false,
      "stateMutability": "nonpayable",
      "type": "function"
    },
    {
      "constant": true,
      "inputs": [
        {
          "name": "_address",
          "type": "address"
        }
      ],
      "name": "isAddressAllowedToSend",
      "outputs": [
        {
          "name": "",
          "type": "bool"
        }
      ],
      "payable": false,
      "stateMutability": "view",
      "type": "function"
    },
    {
      "constant": false,
      "inputs": [
        {
          "name": "_amount",
          "type": "uint256"
        },
        {
          "name": "_receiver",
          "type": "address"
        }
      ],
      "name": "sendFunds",
      "outputs": [
        {
          "name": "",
          "type": "uint256"
        }
      ],
      "payable": false,
      "stateMutability": "nonpayable",
      "type": "function"
    },
    {
      "constant": false,
      "inputs": [],
      "name": "killWaller",
      "outputs": [],
      "payable": false,
      "stateMutability": "nonpayable",
      "type": "function"
    },
    {
      "constant": false,
      "inputs": [
        {
          "name": "_address",
          "type": "address"
        }
      ],
      "name": "disallowAdressToSendFunds",
      "outputs": [],
      "payable": false,
      "stateMutability": "nonpayable",
      "type": "function"
    },
    {
      "constant": false,
      "inputs": [],
      "name": "donate",
      "outputs": [],
      "payable": true,
      "stateMutability": "payable",
      "type": "function"
    },
    {
      "inputs": [],
      "payable": false,
      "stateMutability": "nonpayable",
      "type": "constructor"
    },
    {
      "anonymous": false,
      "inputs": [
        {
          "indexed": false,
          "name": "_sender",
          "type": "address"
        },
        {
          "indexed": false,
          "name": "_amount",
          "type": "uint256"
        }
      ],
      "name": "Deposit",
      "type": "event"
    },
    {
      "anonymous": false,
      "inputs": [
        {
          "indexed": false,
          "name": "_sender",
          "type": "address"
        },
        {
          "indexed": false,
          "name": "_amount",
          "type": "uint256"
        },
        {
          "indexed": false,
          "name": "_beneficiary",
          "type": "address"
        }
      ],
      "name": "Withdraw",
      "type": "event"
    }
  ],
  "bytecode": "0x6060604052341561000f57600080fd5b336000806101000a81548173ffffffffffffffffffffffffffffffffffffffff021916908373ffffffffffffffffffffffffffffffffffffffff1602179055506106c28061005e6000396000f300606060405260043610610078576000357c0100000000000000000000000000000000000000000000000000000000900463ffffffff1680635ce07b0c1461007d57806391d85a5f146100b6578063b268677414610107578063ddd1d4521461015d578063de0e3e8014610172578063ed88c68e146101ab575b600080fd5b341561008857600080fd5b6100b4600480803573ffffffffffffffffffffffffffffffffffffffff169060200190919050506101b5565b005b34156100c157600080fd5b6100ed600480803573ffffffffffffffffffffffffffffffffffffffff1690602001909190505061026a565b604051808215151515815260200191505060405180910390f35b341561011257600080fd5b610147600480803590602001909190803573ffffffffffffffffffffffffffffffffffffffff16906020019091905050610317565b6040518082815260200191505060405180910390f35b341561016857600080fd5b6101706104de565b005b341561017d57600080fd5b6101a9600480803573ffffffffffffffffffffffffffffffffffffffff16906020019091905050610573565b005b6101b3610629565b005b6000809054906101000a900473ffffffffffffffffffffffffffffffffffffffff1673ffffffffffffffffffffffffffffffffffffffff163373ffffffffffffffffffffffffffffffffffffffff1614151561021057600080fd5b60018060008373ffffffffffffffffffffffffffffffffffffffff1673ffffffffffffffffffffffffffffffffffffffff16815260200190815260200160002060006101000a81548160ff02191690831515021790555050565b6000600160008373ffffffffffffffffffffffffffffffffffffffff1673ffffffffffffffffffffffffffffffffffffffff16815260200190815260200160002060009054906101000a900460ff168061031057506000809054906101000a900473ffffffffffffffffffffffffffffffffffffffff1673ffffffffffffffffffffffffffffffffffffffff168273ffffffffffffffffffffffffffffffffffffffff16145b9050919050565b6000806000809054906101000a900473ffffffffffffffffffffffffffffffffffffffff1673ffffffffffffffffffffffffffffffffffffffff163373ffffffffffffffffffffffffffffffffffffffff16141580156103c15750600160003373ffffffffffffffffffffffffffffffffffffffff1673ffffffffffffffffffffffffffffffffffffffff16815260200190815260200160002060009054906101000a900460ff16155b156103cb57600080fd5b833073ffffffffffffffffffffffffffffffffffffffff16311015156104d2578273ffffffffffffffffffffffffffffffffffffffff166108fc859081150290604051600060405180830381858888f19350505050905080151561042e57600080fd5b7f56c54ba9bd38d8fd62012e42c7ee564519b09763c426d331b3661b537ead19b2338585604051808473ffffffffffffffffffffffffffffffffffffffff1673ffffffffffffffffffffffffffffffffffffffff1681526020018381526020018273ffffffffffffffffffffffffffffffffffffffff1673ffffffffffffffffffffffffffffffffffffffff168152602001935050505060405180910390a16104d7565b600080fd5b5092915050565b6000809054906101000a900473ffffffffffffffffffffffffffffffffffffffff1673ffffffffffffffffffffffffffffffffffffffff163373ffffffffffffffffffffffffffffffffffffffff1614151561053957600080fd5b6000809054906101000a900473ffffffffffffffffffffffffffffffffffffffff1673ffffffffffffffffffffffffffffffffffffffff16ff5b6000809054906101000a900473ffffffffffffffffffffffffffffffffffffffff1673ffffffffffffffffffffffffffffffffffffffff163373ffffffffffffffffffffffffffffffffffffffff161415156105ce57600080fd5b6000600160008373ffffffffffffffffffffffffffffffffffffffff1673ffffffffffffffffffffffffffffffffffffffff16815260200190815260200160002060006101000a81548160ff02191690831515021790555050565b7fe1fffcc4923d04b559f4d29a8bfc6cda04eb5b0d3c460751c2402c5c5cc9109c3334604051808373ffffffffffffffffffffffffffffffffffffffff1673ffffffffffffffffffffffffffffffffffffffff1681526020018281526020019250505060405180910390a15600a165627a7a72305820f2881911385d904322c697665636958921233b7c4a73797c5f19b7cc9b4595800029",
  "source": "pragma solidity ^0.4.16;\n\n\ncontract SimpleWallet {\n    address owner;\n    mapping(address => bool) isAllowedToSendFunds;\n\n    event Deposit(address _sender, uint _amount);\n    event Withdraw(address _sender, uint _amount, address _beneficiary);\n\n    function SimpleWallet() {\n        owner = msg.sender;\n    }\n\n    modifier isAllowedToSend {\n        if (msg.sender != owner && !isAllowedToSendFunds[msg.sender]) {\n            revert();\n        } else {\n            _;\n        }\n    }\n\n    modifier ownerOnly {\n        if (msg.sender != owner) {\n            revert();\n        } else {\n            _;\n        }\n    }\n\n    function donate() payable {\n        Deposit(msg.sender, msg.value);\n    }\n\n    function sendFunds(uint _amount, address _receiver) isAllowedToSend public returns (uint) {\n        if (this.balance >= _amount) {\n            bool sendSuccess = _receiver.send(_amount);\n            if (!sendSuccess) {\n                revert();\n            }\n\n            Withdraw(msg.sender, _amount, _receiver);\n        } else {\n            revert();\n        }\n    }\n\n    function allowAdressToSendFunds(address _address) ownerOnly public {\n        isAllowedToSendFunds[_address] = true;\n    }\n\n    function disallowAdressToSendFunds(address _address) ownerOnly public {\n        isAllowedToSendFunds[_address] = false;\n    }\n\n    function isAddressAllowedToSend(address _address) public constant returns (bool) {\n        return isAllowedToSendFunds[_address] || _address == owner;\n    }\n\n    function killWaller() ownerOnly public {\n        selfdestruct(owner);\n    }\n}\n",
  "sourcePath": "/home/bborisov/BlockchainFundamentals/ethereum-developer-course-resources/angular-project/contracts/SimpleWallet.sol",
  "compiler": {
    "name": "solc",
    "version": "0.4.18+commit.9cf6e910.Emscripten.clang"
  },
  "schemaVersion": "1.0.1",
  "updatedAt": "2018-01-10T21:44:15.056Z"
}